{
  "contractName": "TournamentScores",
  "abi": [
    {
      "inputs": [],
      "stateMutability": "nonpayable",
      "type": "constructor"
    },
    {
      "inputs": [
        {
          "internalType": "uint256",
          "name": "",
          "type": "uint256"
        },
        {
          "internalType": "uint256",
          "name": "",
          "type": "uint256"
        }
      ],
      "name": "tournamentMatches",
      "outputs": [
        {
          "internalType": "string",
          "name": "player1",
          "type": "string"
        },
        {
          "internalType": "string",
          "name": "player2",
          "type": "string"
        },
        {
          "internalType": "string",
          "name": "winner",
          "type": "string"
        },
        {
          "internalType": "uint256",
          "name": "pointsPlayer1",
          "type": "uint256"
        },
        {
          "internalType": "uint256",
          "name": "pointPlayer2",
          "type": "uint256"
        }
      ],
      "stateMutability": "view",
      "type": "function",
      "constant": true
    },
    {
      "inputs": [
        {
          "internalType": "uint256",
          "name": "",
          "type": "uint256"
        }
      ],
      "name": "tournamentWinners",
      "outputs": [
        {
          "internalType": "string",
          "name": "",
          "type": "string"
        }
      ],
      "stateMutability": "view",
      "type": "function",
      "constant": true
    },
    {
      "inputs": [
        {
          "internalType": "uint256",
          "name": "_tournamentId",
          "type": "uint256"
        },
        {
          "internalType": "string[]",
          "name": "_players1",
          "type": "string[]"
        },
        {
          "internalType": "string[]",
          "name": "_players2",
          "type": "string[]"
        },
        {
          "internalType": "string[]",
          "name": "_matchesWinners",
          "type": "string[]"
        },
        {
          "internalType": "uint256[]",
          "name": "_pointsPlayers1",
          "type": "uint256[]"
        },
        {
          "internalType": "uint256[]",
          "name": "_pointsPlayers2",
          "type": "uint256[]"
        },
        {
          "internalType": "string",
          "name": "_tournamentWinner",
          "type": "string"
        },
        {
          "internalType": "uint256",
          "name": "_matchesNumber",
          "type": "uint256"
        }
      ],
      "name": "setTournamentMatches",
      "outputs": [],
      "stateMutability": "nonpayable",
      "type": "function"
    },
    {
      "inputs": [
        {
          "internalType": "uint256",
          "name": "_tournamentId",
          "type": "uint256"
        }
      ],
      "name": "getTournamentMatches",
      "outputs": [
        {
          "components": [
            {
              "internalType": "string",
              "name": "player1",
              "type": "string"
            },
            {
              "internalType": "string",
              "name": "player2",
              "type": "string"
            },
            {
              "internalType": "string",
              "name": "winner",
              "type": "string"
            },
            {
              "internalType": "uint256",
              "name": "pointsPlayer1",
              "type": "uint256"
            },
            {
              "internalType": "uint256",
              "name": "pointPlayer2",
              "type": "uint256"
            }
          ],
          "internalType": "struct TournamentScores.Match[]",
          "name": "",
          "type": "tuple[]"
        }
      ],
      "stateMutability": "view",
      "type": "function",
      "constant": true
    },
    {
      "inputs": [
        {
          "internalType": "uint256",
          "name": "_tournamentId",
          "type": "uint256"
        }
      ],
      "name": "getTournamentWinner",
      "outputs": [
        {
          "internalType": "string",
          "name": "",
          "type": "string"
        }
      ],
      "stateMutability": "view",
      "type": "function",
      "constant": true
    }
  ],
  "bytecode": "0x608060405234801561001057600080fd5b506113ec806100206000396000f3fe608060405234801561001057600080fd5b50600436106100575760003560e01c80633fbf92011461005c5780638203056314610090578063d8c57e85146100c0578063dcb9d51f146100f0578063ef59dd5214610120575b600080fd5b610076600480360381019061007191906109f0565b61013c565b604051610087959493929190610ad8565b60405180910390f35b6100aa60048036038101906100a59190610b40565b610327565b6040516100b79190610b6d565b60405180910390f35b6100da60048036038101906100d59190610b40565b61042e565b6040516100e79190610d2e565b60405180910390f35b61010a60048036038101906101059190610b40565b6106c1565b6040516101179190610b6d565b60405180910390f35b61013a6004803603810190610135919061102e565b610761565b005b6000602052816000526040600020818154811061015857600080fd5b90600052602060002090600502016000915091505080600001805461017c906111bb565b80601f01602080910402602001604051908101604052809291908181526020018280546101a8906111bb565b80156101f55780601f106101ca576101008083540402835291602001916101f5565b820191906000526020600020905b8154815290600101906020018083116101d857829003601f168201915b50505050509080600101805461020a906111bb565b80601f0160208091040260200160405190810160405280929190818152602001828054610236906111bb565b80156102835780601f1061025857610100808354040283529160200191610283565b820191906000526020600020905b81548152906001019060200180831161026657829003601f168201915b505050505090806002018054610298906111bb565b80601f01602080910402602001604051908101604052809291908181526020018280546102c4906111bb565b80156103115780601f106102e657610100808354040283529160200191610311565b820191906000526020600020905b8154815290600101906020018083116102f457829003601f168201915b5050505050908060030154908060040154905085565b60606000600160008481526020019081526020016000208054610349906111bb565b90501161038b576040517f08c379a00000000000000000000000000000000000000000000000000000000081526004016103829061125e565b60405180910390fd5b6001600083815260200190815260200160002080546103a9906111bb565b80601f01602080910402602001604051908101604052809291908181526020018280546103d5906111bb565b80156104225780601f106103f757610100808354040283529160200191610422565b820191906000526020600020905b81548152906001019060200180831161040557829003601f168201915b50505050509050919050565b606060008060008481526020019081526020016000208054905011610488576040517f08c379a000000000000000000000000000000000000000000000000000000000815260040161047f906112f0565b60405180910390fd5b600080838152602001908152602001600020805480602002602001604051908101604052809291908181526020016000905b828210156106b657838290600052602060002090600502016040518060a00160405290816000820180546104ed906111bb565b80601f0160208091040260200160405190810160405280929190818152602001828054610519906111bb565b80156105665780601f1061053b57610100808354040283529160200191610566565b820191906000526020600020905b81548152906001019060200180831161054957829003601f168201915b5050505050815260200160018201805461057f906111bb565b80601f01602080910402602001604051908101604052809291908181526020018280546105ab906111bb565b80156105f85780601f106105cd576101008083540402835291602001916105f8565b820191906000526020600020905b8154815290600101906020018083116105db57829003601f168201915b50505050508152602001600282018054610611906111bb565b80601f016020809104026020016040519081016040528092919081815260200182805461063d906111bb565b801561068a5780601f1061065f5761010080835404028352916020019161068a565b820191906000526020600020905b81548152906001019060200180831161066d57829003601f168201915b5050505050815260200160038201548152602001600482015481525050815260200190600101906104ba565b505050509050919050565b600160205280600052604060002060009150905080546106e0906111bb565b80601f016020809104026020016040519081016040528092919081815260200182805461070c906111bb565b80156107595780601f1061072e57610100808354040283529160200191610759565b820191906000526020600020905b81548152906001019060200180831161073c57829003601f168201915b505050505081565b60005b818110156108d0576000808a81526020019081526020016000206040518060a001604052808a848151811061079c5761079b611310565b5b602002602001015181526020018984815181106107bc576107bb611310565b5b602002602001015181526020018884815181106107dc576107db611310565b5b602002602001015181526020018784815181106107fc576107fb611310565b5b6020026020010151815260200186848151811061081c5761081b611310565b5b60200260200101518152509080600181540180825580915050600190039060005260206000209060050201600090919091909150600082015181600001908051906020019061086c929190610903565b506020820151816001019080519060200190610889929190610903565b5060408201518160020190805190602001906108a6929190610903565b506060820151816003015560808201518160040155505080806108c89061136e565b915050610764565b5081600160008a815260200190815260200160002090805190602001906108f8929190610903565b505050505050505050565b82805461090f906111bb565b90600052602060002090601f0160209004810192826109315760008555610978565b82601f1061094a57805160ff1916838001178555610978565b82800160010185558215610978579182015b8281111561097757825182559160200191906001019061095c565b5b5090506109859190610989565b5090565b5b808211156109a257600081600090555060010161098a565b5090565b6000604051905090565b600080fd5b600080fd5b6000819050919050565b6109cd816109ba565b81146109d857600080fd5b50565b6000813590506109ea816109c4565b92915050565b60008060408385031215610a0757610a066109b0565b5b6000610a15858286016109db565b9250506020610a26858286016109db565b9150509250929050565b600081519050919050565b600082825260208201905092915050565b60005b83811015610a6a578082015181840152602081019050610a4f565b83811115610a79576000848401525b50505050565b6000601f19601f8301169050919050565b6000610a9b82610a30565b610aa58185610a3b565b9350610ab5818560208601610a4c565b610abe81610a7f565b840191505092915050565b610ad2816109ba565b82525050565b600060a0820190508181036000830152610af28188610a90565b90508181036020830152610b068187610a90565b90508181036040830152610b1a8186610a90565b9050610b296060830185610ac9565b610b366080830184610ac9565b9695505050505050565b600060208284031215610b5657610b556109b0565b5b6000610b64848285016109db565b91505092915050565b60006020820190508181036000830152610b878184610a90565b905092915050565b600081519050919050565b600082825260208201905092915050565b6000819050602082019050919050565b600082825260208201905092915050565b6000610bd782610a30565b610be18185610bbb565b9350610bf1818560208601610a4c565b610bfa81610a7f565b840191505092915050565b610c0e816109ba565b82525050565b600060a0830160008301518482036000860152610c318282610bcc565b91505060208301518482036020860152610c4b8282610bcc565b91505060408301518482036040860152610c658282610bcc565b9150506060830151610c7a6060860182610c05565b506080830151610c8d6080860182610c05565b508091505092915050565b6000610ca48383610c14565b905092915050565b6000602082019050919050565b6000610cc482610b8f565b610cce8185610b9a565b935083602082028501610ce085610bab565b8060005b85811015610d1c5784840389528151610cfd8582610c98565b9450610d0883610cac565b925060208a01995050600181019050610ce4565b50829750879550505050505092915050565b60006020820190508181036000830152610d488184610cb9565b905092915050565b600080fd5b7f4e487b7100000000000000000000000000000000000000000000000000000000600052604160045260246000fd5b610d8d82610a7f565b810181811067ffffffffffffffff82111715610dac57610dab610d55565b5b80604052505050565b6000610dbf6109a6565b9050610dcb8282610d84565b919050565b600067ffffffffffffffff821115610deb57610dea610d55565b5b602082029050602081019050919050565b600080fd5b600080fd5b600067ffffffffffffffff821115610e2157610e20610d55565b5b610e2a82610a7f565b9050602081019050919050565b82818337600083830152505050565b6000610e59610e5484610e06565b610db5565b905082815260208101848484011115610e7557610e74610e01565b5b610e80848285610e37565b509392505050565b600082601f830112610e9d57610e9c610d50565b5b8135610ead848260208601610e46565b91505092915050565b6000610ec9610ec484610dd0565b610db5565b90508083825260208201905060208402830185811115610eec57610eeb610dfc565b5b835b81811015610f3357803567ffffffffffffffff811115610f1157610f10610d50565b5b808601610f1e8982610e88565b85526020850194505050602081019050610eee565b5050509392505050565b600082601f830112610f5257610f51610d50565b5b8135610f62848260208601610eb6565b91505092915050565b600067ffffffffffffffff821115610f8657610f85610d55565b5b602082029050602081019050919050565b6000610faa610fa584610f6b565b610db5565b90508083825260208201905060208402830185811115610fcd57610fcc610dfc565b5b835b81811015610ff65780610fe288826109db565b845260208401935050602081019050610fcf565b5050509392505050565b600082601f83011261101557611014610d50565b5b8135611025848260208601610f97565b91505092915050565b600080600080600080600080610100898b03121561104f5761104e6109b0565b5b600061105d8b828c016109db565b985050602089013567ffffffffffffffff81111561107e5761107d6109b5565b5b61108a8b828c01610f3d565b975050604089013567ffffffffffffffff8111156110ab576110aa6109b5565b5b6110b78b828c01610f3d565b965050606089013567ffffffffffffffff8111156110d8576110d76109b5565b5b6110e48b828c01610f3d565b955050608089013567ffffffffffffffff811115611105576111046109b5565b5b6111118b828c01611000565b94505060a089013567ffffffffffffffff811115611132576111316109b5565b5b61113e8b828c01611000565b93505060c089013567ffffffffffffffff81111561115f5761115e6109b5565b5b61116b8b828c01610e88565b92505060e061117c8b828c016109db565b9150509295985092959890939650565b7f4e487b7100000000000000000000000000000000000000000000000000000000600052602260045260246000fd5b600060028204905060018216806111d357607f821691505b6020821081036111e6576111e561118c565b5b50919050565b7f546f75726e616d656e742077696e6e6572206e6f7420666f756e6420666f722060008201527f7468697320494400000000000000000000000000000000000000000000000000602082015250565b6000611248602783610a3b565b9150611253826111ec565b604082019050919050565b600060208201905081810360008301526112778161123b565b9050919050565b7f546f75726e616d656e74206d617463686573206e6f7420666f756e6420666f7260008201527f2074686973204944000000000000000000000000000000000000000000000000602082015250565b60006112da602883610a3b565b91506112e58261127e565b604082019050919050565b60006020820190508181036000830152611309816112cd565b9050919050565b7f4e487b7100000000000000000000000000000000000000000000000000000000600052603260045260246000fd5b7f4e487b7100000000000000000000000000000000000000000000000000000000600052601160045260246000fd5b6000611379826109ba565b91507fffffffffffffffffffffffffffffffffffffffffffffffffffffffffffffffff82036113ab576113aa61133f565b5b60018201905091905056fea26469706673582212200f7b015762221a100b2ae7a17b64dcfa686daec658b5fa18deb03e98aad7801564736f6c634300080e0033",
  "immutableReferences": {},
  "source": "// SPDX-License-Identifier: MIT\npragma solidity ^0.8.14;\ncontract TournamentScores{\n\n\tmapping(uint256 => Match[]) public tournamentMatches;\n\tmapping(uint256 => string) public tournamentWinners;\n\n\tstruct Match {\n\t\tstring\tplayer1;\n\t\tstring\tplayer2;\n\t\tstring\twinner;\n\t\tuint256\tpointsPlayer1;\n\t\tuint256\tpointPlayer2;\n\t}\n\n\tconstructor(){}\n\n\tfunction setTournamentMatches(uint256 _tournamentId, string[] memory _players1, string[]  memory _players2, string[]  memory _matchesWinners,\n\t\tuint256[] memory _pointsPlayers1, uint256[] memory _pointsPlayers2, string memory _tournamentWinner, uint256 _matchesNumber) public {\n\t\tfor (uint256 i = 0; i < _matchesNumber; i++)\n\t\t\ttournamentMatches[_tournamentId].push(Match(_players1[i], _players2[i], _matchesWinners[i], _pointsPlayers1[i], _pointsPlayers2[i]));\n\t\ttournamentWinners[_tournamentId] = _tournamentWinner;\n\t}\n\n\tfunction getTournamentMatches(uint256 _tournamentId) public view returns (Match[] memory) {\n\n\t\trequire(tournamentMatches[_tournamentId].length > 0, \"Tournament matches not found for this ID\");\n\t\treturn (tournamentMatches[_tournamentId]);\n\t}\n\n\tfunction getTournamentWinner(uint256 _tournamentId) public view returns (string memory) {\n\n\t\trequire(bytes(tournamentWinners[_tournamentId]).length > 0, \"Tournament winner not found for this ID\");\n\t\treturn (tournamentWinners[_tournamentId]);\n\t}\n}\n",
  "sourcePath": "/dapp/contracts/TournamentScores.sol",
  "compiler": {
    "name": "solc",
    "version": "0.8.14+commit.80d49f37.Emscripten.clang"
  },
  "schemaVersion": "3.4.16",
  "updatedAt": "2024-10-23T14:50:56.834Z",
  "networkType": "ethereum",
  "devdoc": {
    "kind": "dev",
    "methods": {},
    "version": 1
  },
  "userdoc": {
    "kind": "user",
    "methods": {},
    "version": 1
  }
}